:060000000A128A11DF2F35
:10001600F21F32280030F6000030F7008030F8007A
:100026007009F9007109FA007209FB00F90A03194F
:10003600FA0A0319FB0A7908F6077A0803187A0FF1
:1000460025282628F7077B0803187B0F2B282C2842
:10005600F8077608F0007708F1007808F200F51F37
:1000660059280030F6000030F7008030F800730998
:10007600F9007409FA007509FB00F90A0319FA0A6E
:100086000319FB0A7908F6077A0803187A0F4C2831
:100096004D28F7077B0803187B0F52285328F807CB
:1000A6007608F3007708F4007808F5008030F20649
:1000B6008030F50675087202031D08007408710287
:1000C600031D080073087002080024296630F0003A
:1000D6006630F1003F30F200831203134608F30046
:1000E6004708F4004808F5000A128A110B200A1284
:1000F6008A110318242980308312031347063F30E0
:10010600031948064604031D8A28D901DA01CD30B1
:1001160046068C30031947063F3003194806031D6F
:1001260098280130D9000030DA009A304606993016
:10013600031947063F3003194806031DA628023057
:10014600D9000030DA0066304606A63003194706A5
:100156003F3003194806031DB4280330D900003088
:10016600DA0033304606B330031947063F30031929
:100176004806031DC2280430D9000030DA00C0301A
:1001860047063F30031948064604031DCE280530AE
:10019600D9000030DA00CD304606CC3003194706C8
:1001A6003F3003194806031DDC280630D90000300D
:1001B600DA009A304606D930031947063F3003194C
:1001C6004806031DEA280730D9000030DA006630F9
:1001D6004606E630031947063F3003194806031D55
:1001E600F8280830D9000030DA0033304606F330FC
:1001F600031947063F3003194806031D062909302F
:10020600D9000030DA00831603134D088312031356
:10021600D800831603134C0883120313D70059081A
:10022600CB0001300310CB0DFF3E031D1529031033
:100236004B0DA03E840083130008D900840A0008F1
:10024600DA009A30F0003930F1004030F2008312C3
:1002560003134608F3004708F4004808F5000A129D
:100266008A110B200A128A11031CF2293330F0007E
:10027600F330F1003F30F200831203134608F30017
:100286004708F4004808F5000A128A110B200A12E2
:100296008A110318F22940308312031348064604D4
:1002A6004704031D5829D901DA016630460606308F
:1002B60003194706403003194806031D6629013015
:1002C600D9000030DA00CD3046060C300319470657
:1002D600403003194806031D74290230D900003046
:1002E600DA00333046061330031947064030031947
:1002F6004806031D82290330D9000030DA009A30FF
:100306004606193003194706403003194806031DEF
:1003160090290430D9000030DA00203047064030FA
:10032600031948064604031D9C290530D9000030F0
:10033600DA006630460626300319470640300319B0
:100346004806031DAA290630D9000030DA00CD3050
:1003560046062C3003194706403003194806031D8C
:10036600B8290730D9000030DA003330460633307A
:1003760003194706403003194806031DC6290830ED
:10038600D9000030DA009A3046063930031947069C
:10039600403003194806031DD4290930D90000301E
:1003A600DA0083160313510883120313D800831649
:1003B6000313500883120313D7005908CB000130EA
:1003C6000310CB0DFF3E031DE32903104B0DA03E8A
:1003D600840083130008D900840A0008DA009A30E2
:1003E600F0007930F1004030F20083120313460822
:1003F600F3004708F4004808F5000A128A110B209A
:100406000A128A11031CC22A9A30F0003930F10010
:100416004030F200831203134608F3004708F40045
:100426004808F5000A128A110B200A128A110318CD
:10043600C22A403083120313470640300319480688
:100446004604031D282AD901DA01663046064630DD
:1004560003194706403003194806031D362A0130A2
:10046600D9000030DA00CD3046064C300319470675
:10047600403003194806031D442A0230D9000030D3
:10048600DA00333046065330031947064030031965
:100496004806031D522A0330D9000030DA009A308C
:1004A6004606593003194706403003194806031D0E
:1004B600602A0430D9000030DA0060304706403048
:1004C600031948064604031D6C2A0530D90000307E
:1004D600DA006630460666300319470640300319CF
:1004E6004806031D7A2A0630D9000030DA00CD30DE
:1004F60046066C3003194706403003194806031DAB
:10050600882A0730D9000030DA00333046067330C7
:1005160003194706403003194806031D962A08307A
:10052600D9000030DA009A304606793003194706BA
:10053600403003194806031DA42A0930D9000030AB
:10054600DA0083160313550883120313D8008316A3
:100556000313540883120313D7005908CB00013044
:100566000310CB0DFF3E031DB32A03104B0DA03E17
:10057600840083130008D900840A0008DA00CD300D
:10058600F0009C30F1004030F2008312031346085D
:10059600F3004708F4004808F5000A128A110B20F8
:1005A6000A128A11031C922B9A30F0007930F1005E
:1005B6004030F200831203134608F3004708F400A4
:1005C6004808F5000A128A110B200A128A1103182C
:1005D600922B8030831203134706403003194806D6
:1005E6004604031DF82AD901DA0133304606833062
:1005F60003194706403003194806031D062B013030
:10060600D9000030DA006630460686300319470600
:10061600403003194806031D142B0230D900003060
:10062600DA009A3046068930031947064030031926
:100636004806031D222B0330D9000030DA00CD30E6
:1006460046068C3003194706403003194806031D39
:10065600302B0430D9000030DA00903047064030A5
:10066600031948064604031D3C2B0530D90000300B
:10067600DA00333046069330031947064030031933
:100686004806031D4A2B0630D9000030DA006630D2
:100696004606963003194706403003194806031DDF
:1006A600582B0730D9000030DA009A3046069930C8
:1006B60003194706403003194806031D662B083008
:1006C600D9000030DA00CD3046069C3003194706C3
:1006D600403003194806031D742B0930D900003039
:1006E600DA0083160313590883120313D8008316FE
:1006F6000313580883120313D7005908CB0001309F
:100706000310CB0DFF3E031D832B03104B0DA03EA4
:10071600840083130008D900840A0008DA00CD306B
:10072600F000BC30F1004030F2008312031346089B
:10073600F3004708F4004808F5000A128A110B2056
:100746000A128A11031C622CCD30F0009C30F10095
:100756004030F200831203134608F3004708F40002
:100766004808F5000A128A110B200A128A1103188A
:10077600622CA03083120313470640300319480643
:100786004604031DC82BD901DA0133304606A330CF
:1007960003194706403003194806031DD62B0130BE
:1007A600D9000030DA0066304606A630031947063F
:1007B600403003194806031DE42B0230D9000030EF
:1007C600DA009A304606A930031947064030031965
:1007D6004806031DF22B0330D9000030DA00CD3075
:1007E6004606AC3003194706403003194806031D78
:1007F600002C0430D9000030DA00B0304706403013
:10080600031948064604031D0C2C0530D900003098
:10081600DA0033304606B330031947064030031971
:100826004806031D1A2C0630D9000030DA0066305F
:100836004606B63003194706403003194806031D1D
:10084600282C0730D9000030DA009A304606B93035
:1008560003194706403003194806031D362C083095
:10086600D9000030DA00CD304606BC300319470601
:10087600403003194806031D442C0930D9000030C6
:10088600DA00831603135D0883120313D800831658
:1008960003135C0883120313D7005908CB000130F9
:1008A6000310CB0DFF3E031D532C03104B0DA03E32
:1008B600840083130008D900840A0008DA00CD30CA
:1008C600F000DC30F1004030F200831203134608DA
:1008D600F3004708F4004808F5000A128A110B20B5
:1008E6000A128A11031C322DCD30F000BC30F10003
:1008F6004030F200831203134608F3004708F40061
:100906004808F5000A128A110B200A128A110318E8
:10091600322DC030831203134706403003194806B0
:100926004604031D982CD901DA0133304606C3303C
:1009360003194706403003194806031DA62C01304B
:10094600D9000030DA0066304606C630031947067D
:10095600403003194806031DB42C0230D90000307C
:10096600DA009A304606C9300319470640300319A3
:100976004806031DC22C0330D9000030DA00CD3002
:100986004606CC3003194706403003194806031DB6
:10099600D02C0430D9000030DA00D0304706403081
:1009A600031948064604031DDC2C0530D900003027
:1009B600DA0033304606D3300319470640300319B0
:1009C6004806031DEA2C0630D9000030DA006630EE
:1009D6004606D63003194706403003194806031D5C
:1009E600F82C0730D9000030DA009A304606D930A4
:1009F60003194706403003194806031D062D083023
:100A0600D9000030DA00CD304606DC30031947063F
:100A1600403003194806031D142D0930D900003053
:100A2600DA0083160313610883120313D8008316B2
:100A36000313600883120313D7005908CB00013053
:100A46000310CB0DFF3E031D232D03104B0DA03EBF
:100A5600840083130008D900840A0008DA00CD3028
:100A6600F000FC30F1004030F20083120313460818
:100A7600F3004708F4004808F5000A128A110B2013
:100A86000A128A11031C022ECD30F000DC30F10070
:100A96004030F200831203134608F3004708F400BF
:100AA6004808F5000A128A110B200A128A11031847
:100AB600022EE0308312031347064030031948061E
:100AC6004604031D682DD901DA0133304606E330AA
:100AD60003194706403003194806031D762D0130D9
:100AE600D9000030DA0066304606E63003194706BC
:100AF600403003194806031D842D0230D90000300A
:100B0600DA009A304606E9300319470640300319E1
:100B16004806031D922D0330D9000030DA00CD308F
:100B26004606EC3003194706403003194806031DF4
:100B3600A02D0430D9000030DA00F03047064030EE
:100B4600031948064604031DAC2D0530D9000030B4
:100B5600DA0033304606F3300319470640300319EE
:100B66004806031DBA2D0630D9000030DA0066307B
:100B76004606F63003194706403003194806031D9A
:100B8600C82D0730D9000030DA009A304606F93011
:100B960003194706403003194806031DD62D0830B1
:100BA600D9000030DA00CD304606FC30031947067E
:100BB600403003194806031DE42D0930D9000030E2
:100BC600DA0083160313650883120313D80083160D
:100BD6000313640883120313D7005908CB000130AE
:100BE6000310CB0DFF3E031DF32D03104B0DA03E4E
:100BF600840083130008D900840A0008DA006630EE
:100C0600F0000E30F1004130F20083120313460863
:100C1600F3004708F4004808F5000A128A110B2071
:100C26000A128A11031CD02ECD30F000FC30F100E0
:100C36004030F200831203134608F3004708F4001D
:100C46004808F5000A128A110B200A128A110318A5
:100C5600D02E413083120313480646044704031D71
:100C6600362ED901DA019A304606031D442E470373
:100C7600413003194806031D442E0130D9000030C7
:100C8600DA003330460603300319470641300319AC
:100C96004806031D522E0230D9000030DA00CD304E
:100CA6004606043003194706413003194806031D5A
:100CB600602E0330D9000030DA0066304606063072
:100CC60003194706413003194806031D6E2E0430EA
:100CD600D9000030DA0008304706413003194806CB
:100CE6004604031D7A2E0530D9000030DA009A300A
:100CF6004606093003194706413003194806031D05
:100D0600882E0630D9000030DA00333046060B3024
:100D160003194706413003194806031D962E07306E
:100D2600D9000030DA00CD3046060C3003194706EC
:100D3600413003194806031DA42E0830D90000309F
:100D4600DA00663046060E300319470641300319AD
:100D56004806031DB22E0930D9000030DA0083168A
:100D66000313690883120313D80083160313680854
:100D760083120313D7005908CB0001300310CB0DA3
:100D8600FF3E031DC12E03104B0DA03E84008313AE
:100D96000008D900840A0008DA006630F0001E3028
:100DA600F1004130F200831203134608F3004708AE
:100DB600F4004808F5000A128A110B200A128A115B
:100DC600031CA02F6630F0000E30F1004130F20017
:100DD600831203134608F3004708F4004808F50099
:100DE6000A128A110B200A128A110318A02F10303A
:100DF6008312031347064130031948064604031DB0
:100E0600062FD901DA019A30460611300319470632
:100E1600413003194806031D142F0130D900003054
:100E2600DA003330460613300319470641300319FA
:100E36004806031D222F0230D9000030DA00CD30DB
:100E46004606143003194706413003194806031DA8
:100E5600302F0330D9000030DA00663046061630EF
:100E660003194706413003194806031D3E2F043077
:100E7600D9000030DA001830470641300319480619
:100E86004604031D4A2F0530D9000030DA009A3097
:100E96004606193003194706413003194806031D53
:100EA600582F0630D9000030DA00333046061B30A2
:100EB60003194706413003194806031D662F0730FC
:100EC600D9000030DA00CD3046061C30031947063B
:100ED600413003194806031D742F0830D90000302D
:100EE600DA00663046061E300319470641300319FC
:100EF6004806031D822F0930D9000030DA00831618
:100F060003136D0883120313D800831603136C08AA
:100F160083120313D7005908CB0001300310CB0D01
:100F2600FF3E031D912F03104B0DA03E840083133B
:100F36000008D900840A0008DA008312031349085E
:100F4600013A031DA82F570885004908033A031DD7
:100F5600AE2F570886004908053A031DB42F5708D7
:100F660087004908073A031DBA2F57088800490821
:100F7600093A031DC02F570889004A08013A031D84
:100F8600C62F590885004A08033A031DCC2F590875
:100F960086004A08053A031DD22F590887004A08D9
:100FA600073A031DD82F590888004A08093A031D35
:100FB6000800590889000800D701D801D901DA01CB
:100FC6008313F030FD000A30FE005530FF00A030DC
:100FD60084000A128A1524220A128A114430FD005E
:100FE6000A30FE003130FF00203084000A128A15D4
:100FF600242283010A128A15A52A08308A000408C9
:10100600840A8207003441340034423400344334C5
:0A1016000034443400344534003443
:101440007E088A007F08820020220A128A15800006
:10145000840A04087D0603190034FF0A0319FE0AF2
:10146000242A0A34003400340034143400340034A4
:1014700000341E3400340034003428340034003486
:10148000003432340034003400343C34003400344E
:101490000034463400340034003450340034003416
:1014A00000345A34003400340034FC340034003446
:1014B00000346034003400340034DA340034003452
:1014C0000034F23400340034003466340034003424
:1014D0000034B634003400340034BE3400340034F8
:1014E0000034E034003400340034FE34003400347E
:1014F0000034F634003400340034FD340034003459
:1015000000346134003400340034DB3400340034FF
:101510000034F334003400340034673400340034D1
:101520000034B734003400340034BF3400340034A5
:101530000034E134003400340034FF34003400342B
:101540000034F7340034003400348316031385016B
:1015500086018701880183120313850186018701B3
:101560008801D301D401831203135408803AFF0089
:1015700080307F02031DBE2A093053020318152B49
:10158000831203135408C5005308C4000030C6007A
:101590000030C7000030C800C9010330FC007C08DF
:1015A000CA000A128A1516230A128A1501308312FC
:1015B0000313D3070318D40A0030D407D501D6018A
:1015C0005608803AFF0080307F02031DE92A64300C
:1015D00055020318B32A831203135608C500550891
:1015E000C4000030C6000030C7000030C80005301D
:1015F000FC007C08C9000730FD007D08CA000A1203
:101600008A1516230A128A159C30FD00D730FC007B
:10161000FC0B082BFD0B082B013083120313D5079D
:101620000318D60A0030D607E02A152B83120313BD
:101630004508803AFF0080307F02031D212B0A30CD
:10164000440203189D2B831203134A0803199D2B90
:101650004908013A031D2D2B85014908033A031956
:1016600086014908053A031987014908073A031911
:1016700088014908093A031989014A08013A031DFA
:10168000502B4408CB0001300310CB0DFF3E031D4F
:10169000442B03104B0DA03E8400831300088500EB
:1016A0004A08033A031D632B4408CB0001300310A2
:1016B000CB0DFF3E031D572B03104B0DA03E8400A6
:1016C0008313000886004A08053A031D762B440858
:1016D000CB0001300310CB0DFF3E031D6A2B03101E
:1016E0004B0DA03E84008313000887004A08073A88
:1016F000031D892B4408CB0001300310CB0DFF3EA6
:10170000031D7D2B03104B0DA03E840083130008A6
:1017100088004A08093A031D08004408CB0001303C
:101720000310CB0DFF3E031D902B03104B0DA03E6D
:10173000840083130008890008000A128A157D2C92
:101740008312031344084504031D080049080319C4
:1017500008004A080319080048084704460403190A
:1017600008006630F0006630F1003F30F2004608B5
:10177000F3004708F4004808F5000A128A110B200C
:101780000A128A15031C652C8312031348084704A8
:101790004604031DCD2BD901DA01CD304606CC30ED
:1017A000031947063D3003194806031DDB2B0130A2
:1017B000D9000030DA00CD3046064C300319470618
:1017C0003E3003194806031DE92B0230D9000030D2
:1017D000DA009A3046069930031947063E3003195D
:1017E0004806031DF72B0330D9000030DA00CD3056
:1017F0004606CC30031947063E3003194806031D40
:10180000052C0430D9000030DA003F304806460489
:101810004704031D0F2C0530D9000030DA009A3040
:1018200046061930031947063F3003194806031DC1
:101830001D2C0630D9000030DA0033304606333034
:10184000031947063F3003194806031D2B2C0730A8
:10185000D9000030DA00CD3046064C300319470677
:101860003F3003194806031D392C0830D9000030D9
:10187000DA00663046066630031947063F30031922
:101880004806031D472C0930D9000030DA008316C2
:101890000313490883120313D8008316031348085F
:1018A00083120313D7005908CB0001300310CB0D6E
:1018B000FF3E031D562C03104B0DA03E84008313E6
:1018C0000008D900840A0008DA003330F000F33051
:1018D000F1003F30F200831203134608F30047087B
:1018E000F4004808F5000A128A110B200A128A1522
:1018F000031C7A2C0A128A116828831203134508E4
:10190000803AFF0080307F02031D882C0A30440299
:10191000031CFD2F831203134508803AFF0080301B
:101920007F02031D952C643044020318FD2F83129F
:10193000031349080319FD2F4A080319FD2F200935
:10194000CB002109CC002209CD002309CE00CB0A0F
:101950000319CC0A0319CD0A0319CE0A4408CF0093
:101960004508D0000030D01BFF30D100D2004F0816
:10197000CB0750080318500FBE2CBF2CCC075108C2
:101980000318510FC42CC52CCD0752080318520A56
:10199000CE074E08031DF82C4D08031DF82C4C08EB
:1019A000031DF82C0A304B02031DD62C0318F82C0B
:1019B00083160313250883120313D8008316031319
:1019C000240883120313D7002003FF3A4407CB00F7
:1019D00001300310CB0DFF3E031DE92C03104B0D0E
:1019E000A03E840083130008D900840A0008DA00AE
:1019F0002409CB002509CC002609CD002709CE00FB
:101A0000CB0A0319CC0A0319CD0A0319CE0A4408DC
:101A1000CF004508D0000030D01BFF30D100D200ED
:101A20004F08CB0750080318500F172D182DCC075F
:101A300051080318510F1D2D1E2DCD0752080318F4
:101A4000520ACE074E08031D512D4D08031D512D7E
:101A50004C08031D512D0A304B02031D2F2D031876
:101A6000512D83160313290883120313D8008316FC
:101A70000313280883120313D7002403FF3A4407F3
:101A8000CB0001300310CB0DFF3E031D422D031090
:101A90004B0DA03E840083130008D900840A00087F
:101AA000DA002809CB002909CC002A09CD002B092E
:101AB000CE00CB0A0319CC0A0319CD0A0319CE0AAA
:101AC0004408CF004508D0000030D01BFF30D100C3
:101AD000D2004F08CB0750080318500F702D712DFE
:101AE000CC0751080318510F762D772DCD075208DA
:101AF0000318520ACE074E08031DAA2D4D08031DD8
:101B0000AA2D4C08031DAA2D0A304B02031D882D57
:101B10000318AA2D831603132D0883120313D8006C
:101B2000831603132C0883120313D7002803FF3AEC
:101B30004407CB0001300310CB0DFF3E031D9B2D4E
:101B400003104B0DA03E840083130008D900840AC3
:101B50000008DA002C09CB002D09CC002E09CD009D
:101B60002F09CE00CB0A0319CC0A0319CD0A031999
:101B7000CE0A4408CF004508D0000030D01BFF300B
:101B8000D100D2004F08CB0750080318500FC92DC1
:101B9000CA2DCC0751080318510FCF2DD02DCD07DA
:101BA00052080318520ACE074E08031D032E4D0893
:101BB000031D032E4C08031D032E0A304B02031D88
:101BC000E12D0318032E8316031331088312031328
:101BD000D80083160313300883120313D7002C0395
:101BE000FF3A4407CB0001300310CB0DFF3E031D2D
:101BF000F42D03104B0DA03E840083130008D90080
:101C0000840A0008DA003009CB003109CC0032091F
:101C1000CD003309CE00CB0A0319CC0A0319CD0A33
:101C20000319CE0A4408CF004508D0000030D01B6D
:101C3000FF30D100D2004F08CB0750080318500FD7
:101C4000222E232ECC0751080318510F282E292E9F
:101C5000CD0752080318520ACE074E08031D5C2E0A
:101C60004D08031D5C2E4C08031D5C2E0A304B02F0
:101C7000031D3A2E03185C2E8316031335088312B6
:101C80000313D80083160313340883120313D700F9
:101C90003003FF3A4407CB0001300310CB0DFF3E69
:101CA000031D4D2E03104B0DA03E8400831300082E
:101CB000D900840A0008DA003409CB003509CC00C9
:101CC0003609CD003709CE00CB0A0319CC0A031917
:101CD000CD0A0319CE0A4408CF004508D0000030D1
:101CE000D01BFF30D100D2004F08CB07500803189B
:101CF000500F7B2E7C2ECC0751080318510F812EDC
:101D0000822ECD0752080318520ACE074E08031D33
:101D1000B52E4D08031DB52E4C08031DB52E0A30F7
:101D20004B02031D932E0318B52E83160313390897
:101D300083120313D8008316031338088312031386
:101D4000D7003403FF3A4407CB0001300310CB0D1A
:101D5000FF3E031DA62E03104B0DA03E84008313EF
:101D60000008D900840A0008DA003809CB003909D4
:101D7000CC003A09CD003B09CE00CB0A0319CC0AAE
:101D80000319CD0A0319CE0A4408CF004508D00034
:101D90000030D01BFF30D100D2004F08CB075008D5
:101DA0000318500FD42ED52ECC0751080318510F0D
:101DB000DA2EDB2ECD0752080318520ACE074E0842
:101DC000031D0E2F4D08031D0E2F4C08031D0E2F53
:101DD0000A304B02031DEC2E03180E2F831603133B
:101DE0003D0883120313D800831603133C088312A3
:101DF0000313D7003803FF3A4407CB000130031028
:101E0000CB0DFF3E031DFF2E03104B0DA03E8400A3
:101E100083130008D900840A0008DA003C09CB00CB
:101E20003D09CC003E09CD003F09CE00CB0A031985
:101E3000CC0A0319CD0A0319CE0A4408CF0045087D
:101E4000D0000030D01BFF30D100D2004F08CB07AC
:101E500050080318500F2D2F2E2FCC0751080318B0
:101E6000510F332F342FCD0752080318520ACE07D3
:101E70004E08031D672F4D08031D672F4C08031DD7
:101E8000672F0A304B02031D452F0318672F831657
:101E90000313410883120313D80083160313400869
:101EA00083120313D7003C03FF3A4407CB000130F1
:101EB0000310CB0DFF3E031D582F03104B0DA03E0A
:101EC000840083130008D900840A0008DA0040095E
:101ED000CB004109CC004209CD004309CE00CB0A1A
:101EE0000319CC0A0319CD0A0319CE0A4408CF00FE
:101EF0004508D0000030D01BFF30D100D2004F0881
:101F0000CB0750080318500F862F872FCC07510896
:101F10000318510F8C2F8D2FCD0752080318520A2A
:101F2000CE074E08031DC02F4D08031DC02F4C08BF
:101F3000031DC02F0A304B02031D9E2F0318C02F14
:101F400083160313450883120313D8008316031363
:101F5000440883120313D7004003FF3A4407CB0021
:101F600001300310CB0DFF3E031DB12F03104B0DAD
:101F7000A03E840083130008D900840A0008DA0018
:101F80004908013A031DC62F570885004908033A3E
:101F9000031DCC2F570886004908053A031DD22F90
:101FA000570887004908073A031DD82F57088800AB
:101FB0004908093A031DDE2F570889004A08013AEB
:101FC000031DE42F590885004A08033A031DEA2F30
:101FD000590886004A08053A031DF02F5908870062
:101FE0004A08073A031DF62F590888004A08093A9B
:101FF000031D08005908890008000A128A15A02B41
:02400E0072F945
:00000001FF
